:020000040800F2
:10000000700D0020710100088D2C0008A728000841
:1000100000000000000000000000000000000000E0
:10002000000000000000000000000000693300082C
:100030000000000000000000ED3200082137000839
:10004000830100080000000083010008830100080C
:1000500083010008910B0008830100089B0B000836
:1000600000000000830100088301000883010008EC
:1000700083010008830100088301000800000000DC
:1000800029380008830100080000000083010008EF
:100090008301000883010008830100088301000830
:1000A00083010008830100088301000871410008F2
:1000B000A141000800F002F800F04BF80CA030C895
:1000C000083824182D18A246671EAB4654465D46D4
:1000D000AC4201D100F03DF87E460F3E0FCCB64653
:1000E0000126334200D0FB1AA246AB4633431847E1
:1000F0003071000050710000103A02D378C878C106
:10010000FAD8520701D330C830C101D504680C6059
:10011000704700000023002400250026103A01D378
:1001200078C1FBD8520700D330C100D50B607047AF
:1001300010B5642902D100F0FDF810BD782902D174
:1001400000F02EF910BD002010BD1FB51FBD10B569
:1001500010BD00F007FC1146FFF7F7FF04F0FCFAB2
:1001600000F01FFC03B4FFF7F2FF03BC04F0D0F86B
:100170000748804707480047FEE7FEE7FEE7FEE73F
:10018000FEE7FEE704480549054A064B70470000B4
:10019000B5370008B500000870070020700D00207A
:1001A00070090020700900207047FEB50546104612
:1001B0000C46184373D0AE468C460020AD1A01465B
:1001C0009C4167D36646002701243D46B61A9D41EF
:1001D00002D313463A462124654676462F04360C50
:1001E0003E432D0CB61A9D4104D3150C1B042B4322
:1001F00012041034654676462F06360A3E432D0A11
:10020000B61A9D4104D3150E1B022B43120208346B
:10021000654676462F0736093E432D09B61A9D419D
:1002200004D3150F1B012B431201241D654676468E
:10023000AF07B6083E43AD08B61A9D4104D3950FEB
:100240009B002B439200A41C65467646EF07760878
:100250003E436D08B61A9D411AD392185B41641C47
:1002600016E00018764665464941B71A9D4101914E
:10027000009009D36046B11A98418E468446009892
:1002800001990025401C6941DD0752082A435B089B
:10029000641EE6D57246634603B0F0BDFFE700205A
:1002A0000146C046C0462A462346F5E70FB4054935
:1002B00010B503AA029800F0BFFA10BC08BC04B045
:1002C0001847000018000020F8B50E46044600202C
:1002D00020622046E1688847002829D0252802D0DE
:1002E0006268A16820E0E168204600278847050091
:1002F0001ED028464138192802D80127FF02203590
:100300003246204627602946FFF712FF002808D012
:10031000012804D0F61DF608F6000836D9E7361D88
:10032000D7E762682846A1689047206A401CCFE75B
:10033000206AF8BDF7B5002575291068009914A644
:1003400011D0C046C046002802DA404211A608E09B
:10035000009909688A0701D50FA602E0490704D56C
:100360000EA6012501E0C046C046009F00242437A8
:1003700004E000F075FA30313955641C0028F8D1DA
:100380002B4632462146009800F0FEF9FEBD0000E3
:10039000000000002D0000002B00000020000000E5
:1003A00070B504460D4621461068C046C0462188F7
:1003B000090502D50F4A7A4402E00E4A7A440E3209
:1003C00023460021243305E006070009360F965D19
:1003D0005E54491C0028F7D120780023000705D57A
:1003E000702D03D0002901D002231132204600F0E5
:1003F000CBF970BDFE6D000001E004C0091F0429A7
:10040000FBD28B0701D50280801CC90700D0027087
:10041000704700290BD0C30702D00270401C491E50
:10042000022904D3830702D50280801C891EE3E7DA
:100430000022EEE70022DFE7002203098B422CD3E3
:10044000030A8B4211D300239C464EE003460B4324
:100450003CD4002243088B4231D303098B421CD386
:10046000030A8B4201D394463FE0C3098B4201D378
:10047000CB01C01A524183098B4201D38B01C01AB0
:10048000524143098B4201D34B01C01A5241030927
:100490008B4201D30B01C01A5241C3088B4201D3D6
:1004A000CB00C01A524183088B4201D38B00C01A83
:1004B000524143088B4201D34B00C01A5241411AAA
:1004C00000D201465241104670475DE0CA0F00D08D
:1004D0004942031000D34042534000229C46030986
:1004E0008B422DD3030A8B4212D3FC22890112BA0C
:1004F000030A8B420CD3890192118B4208D38901E4
:1005000092118B4204D389013AD0921100E08909FB
:10051000C3098B4201D3CB01C01A524183098B42DC
:1005200001D38B01C01A524143098B4201D34B01C5
:10053000C01A524103098B4201D30B01C01A524128
:10054000C3088B4201D3CB00C01A524183088B42AF
:1005500001D38B00C01A5241D9D243088B4201D338
:100560004B00C01A5241411A00D201466346524123
:100570005B10104601D34042002B00D54942704722
:1005800063465B1000D3404201B50020C046C04620
:1005900002BD704770477047F0B5FF252D04C609AE
:1005A000C209FF2704462E400137CB093E4348408D
:1005B0002A402B400746002A6BD0002B69D0AA4264
:1005C00067D0AB4265D0002800DA32460125ED0540
:1005D00029432C4309022002090AD21A4B0C7F241A
:1005E000E31A434C000A7C44E35C7D242404121982
:1005F00014145B00A218884201D3521C00E0400092
:1006000049420C465C4324115C43DB016415E3184A
:10061000040A5C43C502200D0C4644436419250AB4
:100620005D432303EC0C0D46654300030019EB18F2
:100630004C42A34201D35B18401CD4052018002B68
:1006400007D05B00C91804D3401C002901D1400821
:1006500040003F2189048A4209D3002A08DC1106A0
:10066000090F04D0032149074018C00FC007F0BD8F
:1006700001224100120689187F2252069142F6D2C9
:1006800005214907C84201D59010F0BDFF20C005E3
:10069000F0BD002F00DA32461648AA4207D2AB421C
:1006A00005D21902090E17D0F80FC007F0BDFF25BB
:1006B00063002D06AB42F9D84900A942F6D8AB42F7
:1006C00001D1A942F2D0A94201D1002101E061008B
:1006D0004908D0050843F0BD1102090EFBD0FF20E8
:1006E0000243D005F0BD0A460146104654E700001B
:1006F000F66B00000000C07F0102C21504D0012388
:10070000DB071943002A0ADB9E239A1A02D4084603
:10071000D0407047FF2241001206914201D90020CB
:100720007047C017C04370471F22030C02D10F222D
:1007300000041CD0030E01D10002083A030F01D1BE
:100740000001121F830F01D18000921E002801DBDF
:100750004000521ED2055118021251181922904021
:1007600004D3491C002801D14908490008467047B4
:10077000C10FC90700D04042012292071143D3E7BD
:1007800001218907D0E77047FFB504460D4681B0C7
:10079000243000902168880604D51022E069914336
:1007A000216000E00120A84201DD471B00E0002796
:1007B0000498A1697A191018081AA0612078C00657
:1007C00002D42046C046C046002608E0039862686E
:1007D000A168805D9047206A401C761C20620498C6
:1007E0008642F3DB2078C0060AD52046C046C046C4
:1007F00006E06268A16830209047206A401C2062B1
:1008000038467F1E0028F4DC07E000986268A16883
:10081000405D9047206A401C206228466D1E0028DB
:10082000F3DC2046C046C0462078000602D50220F0
:1008300005B0F0BD0120FBE7084B70B50D467B44C9
:1008400000F059F80446284600F068F8002802D065
:100850000020C04370BD204670BD0000673E000010
:1008600001468008081A02091018020A1018020C22
:100870001018C008820012185200891A01E0401CAA
:100880000A390A29FBD2704710B5FF231B06440022
:100890009C421DD84C009C421AD80346124A0B4376
:1008A00007D4401A02D3EFF3008010BDEFF30080AD
:1008B00010BD081A06D2EFF3008001219043C9074A
:1008C000084302E0EFF30080904380F3008810BDFE
:1008D0000D231B041A4204D01146002000F022F818
:1008E00010BD00F037F810BD0000009001694A1CEF
:1008F00002610878704700B58FB002910021059120
:100900000549019379440391114604906846FFF725
:10091000DBFC0FB000BD0000E5FFFFFFC0688021D9
:1009200008407047CA0211D54A03520F002A04D06A
:10093000C803C043012188407047054AEFF3008196
:1009400008010009104380F30088704700207047B9
:100950000000003010B5024800F029F810BD00007A
:100960000000C07F754600F051F8AE4605006946AC
:100970005346C008C000854618B020B5FFF702FCFA
:1009800060BC00274908B6460026C0C5C0C5C0C522
:10099000C0C5C0C5C0C5C0C5C0C5403D49008D4625
:1009A00070470446C046C0462046FFF7DBFB10B543
:1009B0000C461107090F092904D00A290AD0082971
:1009C0000CD104E011460820FFF7ACFF06E0510609
:1009D00006D501E0510601D50120C007214610BD12
:1009E000D10607D501010909CC084907000E000608
:1009F000044309E0410F20024907000A0143200E89
:100A000000061D22D14101430846E7E70048704730
:100A10001007002038B5044600250020009020680B
:100A200080688007800F01280ED120680068C00709
:100A3000C00F002806D12068C0680121C903084002
:100A4000884201D1012000E00020002843D1206825
:100A5000806822490840002801D1012000E00020E0
:100A6000002809D1A06B10210843A063E06B01218D
:100A70000843E063012038BD2068806801210843F5
:100A800021688860164917480068FFF7D5FC009078
:100A900002E00098401E009000980028F9D100F074
:100AA00025FD05460EE000F021FD401B022809D976
:100AB000A06B10210843A063E06B01210843E063B1
:100AC0000120D8E720680068C007C00F0121484016
:100AD00048400028E7D00020CDE700001700008044
:100AE00040420F001000002070B5002500240022B5
:100AF00040210920C00600F0F2FC28E00121092075
:100B0000C00600F0E3FC002801D0012000E0002036
:100B1000002803D0681CC5B200240BE0601CC4B2DE
:100B2000032C07DD012240210920C00600F0D7FC7C
:100B3000002070BD1E2003F0D3FC642D07DB0022D3
:100B400040210920C00600F0CAFC0120F1E7D5E7EA
:100B500010B50621054802F03FFF052003F0C0FC58
:100B60000621024802F038FF10BD000030000020CE
:100B700010B50621054802F02FFF052003F0B0FC58
:100B80000621024802F028FF10BD00002A000020C4
:100B900010B5012000F096FB10BD10B5102000F03C
:100BA00091FB202000F08EFB10BD00000EB5002050
:100BB0000090019002900120009000030190072016
:100BC00002906946074800F02FF8064800F082FAC4
:100BD0000A21044800F00CFA024800F0E9F880B25B
:100BE0000EBD00006006002070B50024002507E05F
:100BF000FFF7DCFF0419052003F072FC681CC5B286
:100C0000142DF5DB14212046FFF716FC04467D2049
:100C10004001844200D9044628212046FFF70CFCFD
:100C20006421081AC0B270BDF8B504460D4600260E
:100C30000020009001210907E06A884215D0E06A8F
:100C4000012812D0E06A02280FD0E06A03280CD0F5
:100C5000E06A042809D0E06A052806D0E06A062880
:100C600003D0E06A072800D000BF00BF3420005D39
:100C7000012801D10220F8BD01213420015500BF17
:100C80002068806804210840800800287BD14449FE
:100C9000686888425BD02068806A2A780121914088
:100CA00008432168886201210907E06A884229D047
:100CB000E06A012826D0E06A022823D0E06A0328EF
:100CC00020D0E06A04281DD0E06A05281AD0E06A26
:100CD000062817D0E06A072814D0A8682168496957
:100CE0004907490F88420DD020684069C008C000FC
:100CF0002168486120684069297A4907490F0843FB
:100D0000216848612868102802D0286811283FD13E
:100D1000244880682968102901D1C90401E0012113
:100D2000890508431F4988602868102830D11E496A
:100D30001E480068FFF780FB0A214843009002E04C
:100D40000098401E009000980028F9D120E020680B
:100D5000806A2A7801219140884321688862286846
:100D6000102802D02868112812D10E4880682968FE
:100D7000102902D1C90402E005E001218905884358
:100D80000849886004E0A06B20210843A063012685
:100D900000BF00213420015500BF30466BE7000042
:100DA000011000000027014040420F001000002009
:100DB00001460868006C704770B50446002600259F
:100DC000002C01D1012070BDA06B002806D1E0638A
:100DD000002134200155204600F0D0F8A06B1021EE
:100DE000084000287ED1002EFCD1206880680421B4
:100DF000084080080028F5D1A06B890188430221B2
:100E00000843A063206880688007800F01280DD107
:100E100020680068C007C00F002805D12068C0689E
:100E200089030840884201D1012000E00020002809
:100E30000FD12068C06818218843A1680843216841
:100E4000C8602068006980008008616808432168E4
:100E500008612068C068474908402168C860207E52
:100E60008003617EC9030843A17E49030843A16A48
:100E7000012902D00121090300E000210843E168B3
:100E800008432169022901D1042100E0002108431F
:100E90002421095D490008430543E07E01280ED165
:100EA000A07E002803D101200004054307E0A06BC9
:100EB00020210843A063E06B01210843E063FF2188
:100EC000C231E069884203D0216AE06908430543E2
:100ED0002068C06828432168C86001210907E06ACA
:100EE000884200E03EE014D0E06A012811D0E06AB8
:100EF00002280ED0E06A03280BD0E06A042808D04C
:100F0000E06A052805D0E06A062802D0E06A0728D2
:100F10000DD120684069C008C00021684861206880
:100F20004069A18D4907490F08432168486120683D
:100F3000C06811490840A84208D10020E063A06BB6
:100F40000221884301210843A06310E0A06B022125
:100F5000884310210843A063E06B01210843E0634C
:100F6000012604E0A06B10210843A063012630464F
:100F700029E700001902FEFFE7FF3F8310B586B0A6
:100F80000446142101A8FFF755FA17492068884242
:100F900027D100BF15488069491508431349886166
:100FA0000846806949150840009000BF00BF00BF97
:100FB0000E484069090208430C49486108464069E7
:100FC000012149040840009000BF00BF02200190A9
:100FD000032002900020039001A90920C00600F020
:100FE00081F906B010BD000000240140001002404D
:100FF000F8B504460D466069082801D1082711E0BC
:101000002068C068C007C00F00280AD0A06B20214C
:101010000843A06300BF00213420015500BF012018
:10102000F8BD0C2700F062FA064614E0681C0028A0
:1010300011D0002D04D000F059FA801BA8420AD923
:10104000A06B04210843A06300BF00213420015598
:1010500000BF0320E4E72068006838400028E5D09E
:10106000A06B012149020843A0632068C0680321E6
:1010700089020840002825D1A07E002822D12068BE
:1010800000680821084008281CD1206880680421D5
:101090000840800800280DD1206840680C21884352
:1010A00021684860A06BFF2101318843012108437A
:1010B000A06307E0A06B20210843A063E06B01213F
:1010C0000843E063207E002802D10C2021680860DC
:1010D0000020A5E770B5044600252068806804213B
:1010E0000840800800282BD100BF3420005D012873
:1010F00001D1022070BD01213420015500BF607E66
:10110000012803D02046FFF785FC0546002D18D1A5
:10111000A06B0D490840FF2101310843A063002066
:10112000E06300BF00213420015500BF1C2021686E
:10113000086020688068042108432168886000E016
:1011400002252846D6E70000FEF1FFFF01462120D8
:10115000405C022808D00420886300BF00222020C1
:10116000425400BF01207047086800680E22904377
:101170000A68106008680068400840000A6810604B
:1011800001200A6C9040CA6B506001222120425419
:1011900000BF00222020425400BF0020E3E770B5CA
:1011A000044600252120005D022803D00420A0630E
:1011B00001251EE0206800680E2188432168086030
:1011C0002068006840084000216808600120216C08
:1011D0008840E16B486001212120015500BF0021BA
:1011E0002020015500BF606B002802D02046616BB3
:1011F0008847284670BD70B504460025642003F07A
:101200006FF9012C04D0102C15D0202C57D12EE0D2
:1012100001210920C00600F059F9002801D0012061
:1012200000E00020002805D0FFF75EFC002801D078
:1012300002F07AFA43E010210920C00600F046F9D6
:10124000002801D0012000E0012000280ED000BFBE
:1012500010210920C00600F039F9002801D1012031
:1012600000E000200028F3D103F020FC27E020213B
:101270000920C00600F02AF9002801D0012000E072
:10128000012000281AD005E0FF20F53003F028F9EE
:10129000681CC5B220210920C00600F017F90028FB
:1012A00001D1012000E000200028EDD1032D02DA59
:1012B00003F008FC02E0012003F004FC00BF00BFC3
:1012C00070BD000010B50446054840692040002864
:1012D00004D0034844612046FFF78DFF10BD000095
:1012E0000004014078B503460022DDE00126964067
:1012F0000C683440002C7DD04D68012D08D04D681D
:10130000022D05D04D68112D02D04D68122D18D137
:10131000986856000325B5400646AE433046560051
:10132000CD68B54028439860586801259540064629
:10133000AE43304610264D6835402D099540284370
:101340005860D86856000325B5400646AE4330467F
:1013500056008D68B5402843D8604D68022D02D0F4
:101360004D68122D15D1D508AE001D462035A8595F
:101370005507EE0E0F25B5400646AE4330465607DC
:10138000F60E0D69B5402843D508AD001E4620363F
:101390007051186856000325B5400646AE433046E6
:1013A0000D79AD07AD0F5600B540284318600126F2
:1013B00036074D683540B54275D100BF3D4DAD692A
:1013C000012635433B4EB5613546AD69ED07ED0F5E
:1013D000009500BF00BF384D9608B600A859950784
:1013E0002E0F0F25B5400646AE4330460925ED06C3
:1013F000AB4200E057E001D100250FE02F4DAB429A
:1014000001D101250AE02E4DAB4201D1022505E0B4
:101410002C4DAB4201D1032500E005259607360F80
:10142000B5402843244D9608B600A851264D28689B
:101430000546A5432846012636044D683540B54289
:1014400002D10546254328461F4D28606868054699
:10145000A5432846012676044D683540B54202D1A1
:10146000054625432846184D6860A8680546A543EB
:101470002846012636054D683540B54202D105465D
:1014800025432846104DA860E8680546A543284630
:10149000012676054D683540B54202D10546254303
:1014A0002846094DE860521C0D68D540002D00D03B
:1014B0001CE778BD0010024008000140000400480D
:1014C00000080048000C004800040140024613696F
:1014D0000B40002B01D0012000E000207047002AC3
:1014E00001D0816100E0816270470000014800681E
:1014F0007047000020000020034800680349097875
:101500004018014908607047200000202800002092
:1015100010B50648006810210843044908600320FC
:1015200000F006F800F02EF8002010BD0020024068
:1015300070B50446104801787D20C000FEF77CFF9E
:10154000064631460D480068FEF776FF054600F076
:1015500067FC002801D0012070BD042C07D20022B6
:101560002146501E00F01EF80548046001E00120ED
:10157000F2E70020F0E70000280000201000002023
:1015800024000020704700000146002905DBCB063F
:10159000DB0E01229A40024B1A6000BF7047000028
:1015A00000E100E070B504460D4616462946204687
:1015B00002F072FE70BD000003480068FF21013197
:1015C00008430149086070470070004002494968BB
:1015D0000143014A516070470070004007480068AD
:1015E00002210843054908600548006904210843B1
:1015F0000349086100BF00BF30BF70470070004062
:1016000000ED00E070B504460D46002C01D101202C
:1016100070BD52480068C007C00FA8420ED24F48A4
:1016200000684008400028434C49086008460068AC
:10163000C007C00FA84201D00120E9E702212068BD
:101640000840022814D1042120680840042807D14A
:1016500043484068072109028843401840494860D0
:101660003F484068F0218843A16808433C494860EE
:101670002078C007C00F00283BD06068012808D13F
:1016800037480068012149040840002815D101208D
:10169000BEE76068022808D1314800680121490688
:1016A0000840002809D10120B2E72D480068022136
:1016B0000840002801D10120AAE729484068800895
:1016C00080006168084326494860FFF70FFF06461F
:1016D00007E0FFF70BFF801B2249884201D9032056
:1016E00096E71F4840680C210840616889008842DD
:1016F000EFD11A480068C007C00FA8420ED917489A
:101700000068400840002843144908600846006803
:10171000C007C00FA84201D0012079E7042120684A
:101720000840042808D10E48406807210902884370
:10173000E16808430A49486000F032F808494968FE
:10174000F02211400909084A515CC8400749086065
:101750000320FFF7EDFE00205AE7000000200240C2
:101760000010024088130000C4510008100000203F
:1017700001480068704700001000002000B5FFF726
:10178000F7FF05494968072212021140090A034A76
:10179000515CC84000BD000000100240D451000858
:1017A000F0B589B027A001460EC9C06805AC0EC4CB
:1017B000089028A001460EC9C06801AC0EC4049070
:1017C00000240025002700260020009025484468BA
:1017D0000C20204000282DD0042802D0082828D131
:1017E00002E02148009028E00F2080042040800C77
:1017F00005A90E5C1B48C06A0007000F01A90D5C1B
:101800000120000420400121090488420AD12A460F
:10181000002315481946FEF7C8FC314602F016FDB4
:10182000074604E01148314602F010FD07460097D4
:1018300003E000BF0C48009000BF00BF009809B053
:10184000F0BD000002030405060708090A0B0C0D91
:101850000E0F10100102030405060708090A0B0CFD
:101860000D0E0F100010024000127A0000093D001A
:10187000FEB50446002C01D10120FEBD2078C00732
:10188000C00F002871D0FC4840680C210840042893
:101890000BD0F94840680840082812D1F648406843
:1018A00001210904084088420BD1F3480068012156
:1018B0004904084000286BD06068002868D10120E6
:1018C000DBE700BF6068012807D1EB480068012111
:1018D00009040843E849086031E0606800280ED137
:1018E000E5480068012109048843E3490860084687
:1018F0000068012189048843DF4908601FE06068AF
:1019000005280ED1DC480068012189040843DA4922
:10191000086008460068012109040843D6490860A8
:101920000DE0D5480068012109048843D2490860C8
:1019300008460068012189048843CF49086000BF38
:101940006068002812D0FFF7D1FD054606E0FFF7DA
:10195000CDFD401B642801D903208EE7C6480068EE
:101960000121490408400028F1D011E0FFF7BEFD35
:10197000054606E0FFF7BAFD401B642801D90320A5
:101980007BE7BD4800680121490408400028F1D1E7
:10199000022120680840022861D1B74840680C2124
:1019A000084000280BD0B4484068084008281BD1E4
:1019B000B1484068012109040840002814D1AE480C
:1019C000006802210840002804D0E068012801D006
:1019D000012052E7A8480068F82188432169C9001E
:1019E0000843A54908603AE0E068002820D0A248F2
:1019F000006801210843A0490860FFF777FD05460C
:101A000006E0FFF773FD401B022801D9032034E7ED
:101A100099480068022108400028F2D096480068E2
:101A2000F82188432169C90008439349086016E0FA
:101A300091480068400840008F490860FFF756FD54
:101A4000054606E0FFF752FD401B022801D903209E
:101A500013E789480068022108400028F2D10821D4
:101A600020680840082831D1E069002817D0824852
:101A7000406A0121084380494862FFF737FD054667
:101A800006E0FFF733FD401B022801D90320F4E6EE
:101A90007948406A022108400028F2D016E07648D2
:101AA000406A4008400074494862FFF71FFD054640
:101AB00006E0FFF71BFD401B022801D90320DCE6EE
:101AC0006D48406A022108400028F2D104212068B4
:101AD0000840042873D1002001906748C069890636
:101AE000084000280ED100BF6348C069084362491E
:101AF000C8610846C06909040840009000BF00BFE3
:101B0000012001905D480068FF2101310840002854
:101B100016D15A480068084358490860FFF7E6FCA8
:101B2000054606E0FFF7E2FC401B642801D90320CC
:101B3000A3E652480068FF21013108400028F1D097
:101B400000BFA068012806D14B48006A0121084364
:101B5000494908622BE0A06800280CD14648006A79
:101B600040084000444908620846006A042188434E
:101B7000414908621BE0A06805280CD13E48006A74
:101B8000042108433C4908620846006A01210843D1
:101B9000394908620BE03848006A4008400036497D
:101BA00008620846006A042188433349086200BF7E
:101BB000A068002813D0FFF799FC054608E02BE049
:101BC000FFF794FC401B2E49884201D9032054E6BC
:101BD0002948006A022108400028F1D011E0FFF7EF
:101BE00085FC054607E0FFF781FC401B244988423D
:101BF00001D9032041E62048006A0221084000285C
:101C0000F1D10198012806D11B48C06901210907BB
:101C100088431949C86100BF102120680840102876
:101C200060D1606901282DD11348406B042108431D
:101C3000114948630846406B012108430E49486337
:101C4000FFF754FC054606E0FFF750FC401B022856
:101C500001D9032011E60848406B02210840002802
:101C6000F2D00548406BF8218843A169C9000843B8
:101C70000149486336E00000001002400070004057
:101C8000881300006069401D00280FD15A48406B3E
:101C900004218843584948630846406BF82188432B
:101CA000A169C9000843544948631BE05248406B8E
:101CB00004210843504948630846406B40084000EF
:101CC0004863FFF713FC054606E0FFF70FFC401BD7
:101CD000022801D90320D0E54748406B0221084083
:101CE0000028F2D1206A00284FD0434840680C21D8
:101CF0000840082864D0206A022847D13E4800687E
:101D00000121090688433C490860FFF7EFFB0546BF
:101D100006E0FFF7EBFB401B022801D90320ACE5EE
:101D2000354800680121490608400028F1D100BF6C
:101D30003148C06A00090001E16A08432E49C862BF
:101D4000616AA06A08432C4949683D221204914304
:101D500008432949486000BF084600680121090678
:101D6000084325490860FFF7C1FB054606E0FFF779
:101D7000BDFB401B022801D903207EE51E480068F8
:101D80000121490608400028F1D033E01A480068D4
:101D900001210906884318490860FFF7A7FB05469B
:101DA00006E0FFF7A3FB401B022801D9032064E5EE
:101DB000114800680121490608400028F1D119E0C6
:101DC000206A012800D158E50B484668C76A0120FF
:101DD00000043040616A88420AD13907090FE06A7D
:101DE000814205D10F2080043040A16A884201D091
:101DF000012042E5002040E500100240042806D101
:101E00000649096904221143044A116105E00349A6
:101E1000096904229143014A1161704700E000E022
:101E200070B504462546681E0949884201D901203B
:101E30000CE0681E074948610321081F02F02CFAD4
:101E400000200449886107200861002070BD00005F
:101E5000FFFFFF0000E000E07047704730B502462A
:101E60000B4600BF3C20805C012801D1022030BD20
:101E700001253C20855400BF02253D208554106873
:101E800044681068816870252046A8430446186895
:101E90000443106844600F4D1068A84207D00E4DEF
:101EA0001068A84203D00D4D1068A84207D18025C4
:101EB0000846A8430146586801431068816001251F
:101EC0003D20855400BF00253C20855400BF0020E4
:101ED000CDE70000002C014000040040004001401C
:101EE00010B50446002C01D1012010BD3D20005D3D
:101EF000002805D100213C200155204600F022F8A1
:101F000002213D200155211D206801F0C9FC01215D
:101F10004620015500BF3E2001553F20015540207D
:101F200001554120015500BF00BF4220015543200B
:101F30000155442001554520015500BF3D20015564
:101F40000020D2E738B504460D492068884215D1F3
:101F500000BF0C48C069022108430A49C86108460D
:101F6000C06902210840009000BF00BF0022032189
:101F70001020FFF717FB1020FFF706FB38BD00000D
:101F8000000400400010024001463D20405C012852
:101F900001D00120704702233D2043540868C068E7
:101FA000012318430B68D860104B0868984207D08B
:101FB0000F4B0868984203D00E4B086898420CD12A
:101FC000086880684207520F062A0CD0086800682B
:101FD000012318430B68186005E0086800680123B6
:101FE00018430B6818600020D4E70000002C014063
:101FF0000004004000400140F8B504460D4600BF13
:102000003C20005D012801D10220F8BD01213C20C7
:10201000015500BF02213D200155206886687721C7
:10202000304688430646FF2109023046884306466B
:10203000206886602868502834D00CDC202851D0D5
:1020400004DC00284CD0102852D14AE030284AD075
:1020500040284DD13AE060282ED0702807D00121C9
:102060000903401A02D0401A42D10DE041E0EB686A
:102070006A68A968206801F063FC20688668772098
:1020800006432068866034E0EB686A68A9682068C7
:1020900001F056FC2068806801218903084321680B
:1020A000886026E0EA686968206801F063FC5021D6
:1020B000206801F053FC1CE0EA686968206801F0C0
:1020C00072FC6021206801F049FC12E0EA6869684E
:1020D000206801F04FFC4021206801F03FFC08E03F
:1020E00000BF00BF00BF2968206801F037FC00E096
:1020F00000BF00BF01213D20015500BF00213C2051
:10210000015500BF002080E7704710B504462068E5
:10211000006902210840400800281CD02068C068DF
:1021200008404008002816D0481F21680861012097
:102130002077206880698007800F002803D0204620
:10214000FFF7E2FF05E0204600F0C3F8204600F06C
:10215000C1F8002020772068006904210840800829
:1021600000281DD02068C06808408008002817D0CB
:10217000C843216808610220207720688069032114
:1021800009020840002803D02046FFF7BDFF05E004
:10219000204600F09EF8204600F09CF800202077B2
:1021A0002068006908210840C00800281CD0206869
:1021B000C0680840C008002816D0C84321680861DC
:1021C000042020772068C0698007800F002803D092
:1021D0002046FFF799FF05E0204600F07AF82046F8
:1021E00000F078F80020207720680069102108406E
:1021F000000900281DD02068C06808400009002898
:1022000017D0C84321680861082020772068C0697A
:10221000032109020840002803D02046FFF774FF7D
:1022200005E0204600F055F8204600F053F8002065
:10223000207720680069C007C00F0121484048404E
:1022400000280CD02068C06808404840484000285A
:1022500005D0C81E21680861204600F03DF82068BE
:10226000006980210840C00900280BD02068C068A0
:102270000840C009002805D0C843216808612046ED
:10228000FFF7EAFD20680069402108408009002826
:102290000BD02068C06808408009002805D0C843DA
:1022A00021680861204600F031F82068006920218B
:1022B0000840400900280BD02068C0680840400949
:1022C000002805D0C843216808612046FFF7C5FDF6
:1022D00010BD704770470000094988420ED1094976
:1022E0000978491C074A117011460978052905D15A
:1022F0000121054A11700021024A11707047000047
:1023000018020020290000200B00002070477047B1
:10231000704701468B6FCA6F184610437047000024
:10232000FEB504462068C56920680668206887688D
:10233000B24828400290029800280ED12020284060
:1023400000280AD020203040002806D0606E0028E7
:1023500002D02046616E8847FEBD029800287DD0DD
:10236000F807C00F002803D1A54830400028F6D058
:10237000E807C00F00280DD0FF20013030400028B2
:1023800008D00120216808628020005901210843FB
:10239000802108510220284000280CD0F807C00FE7
:1023A000002808D0022021680862802000590421FA
:1023B0000843802108510420284000280CD0F80749
:1023C000C00F002808D0042021680862802000592E
:1023D000022108438021085108202840002810D0FD
:1023E00020203040002803D1F807C00F002808D073
:1023F00008202168086280200059082108438021B4
:1024000008510120C002284000280ED0012080067B
:102410003040002809D00120C002216808628020D5
:1024200000592021084380210851802000590028AC
:1024300048D020202840002809D020203040002803
:1024400005D0606E002802D02046616E884780204B
:102450000059019020688068402100E033E0084086
:10246000402804D0282101980840002824D0204684
:1024700001F040FC2068806840210840402817D1C6
:1024800020688068884321688860206F00280BD00E
:102490005C48216F4863206FFEF781FE002811D051
:1024A000206F416B88470DE02046FFF731FF09E0C0
:1024B0002046FFF72DFF05E02046FFF729FF00210A
:1024C0008020015148E7206E01287AD11020284051
:1024D000002876D010203040002872D010202168CB
:1024E0000862206880684021084040283DD1206F64
:1024F0000068406880B200900098002834D05820CE
:10250000015B009881422FDD5A2100980853206F0B
:10251000806920281FD020680068FF21013188438E
:102520002168086020688068400840002168886051
:102530002068806840218843216888602020E06707
:102540000020206620680068102188432168086008
:10255000206FFEF7FBFD5820025B5A20005B101A2B
:1025600081B22046FFF7D3FEF6E65820015B5A20E1
:10257000005B081A80B200905A20005B00281ED031
:10258000009800281BD020680068FF212131884373
:1025900021680860206880684008400021688860E1
:1025A0002020E06700202066606620680068102117
:1025B00088432168086020460099FFF7A8FECBE613
:1025C000FFE78020284000280AD0802030400028E3
:1025D00006D0A06E002802D02046A16E8847BBE638
:1025E00040202840002807D040203040002803D059
:1025F000204601F09BFBAFE600BFADE60F080000F0
:1026000020010004DD3C000810B50446002C01D177
:10261000012010BDA069002800D000E000BFA06F1D
:10262000002805D1002174200155204600F02CF827
:102630002420A067206800684008400021680860E6
:10264000204601F00FFC012800D1E2E7606A002873
:1026500002D0204601F090FA206840680121C902AA
:102660008843216848602068806808218843216881
:1026700088602068006801210843216808602046BE
:1026800001F0F2FAC5E7000010B586B004463F49F4
:10269000206888423ED100BF3D484069012149047D
:1026A00008433B4948610846406901214904084004
:1026B000009000BF00BF00BF35488069C9100843C3
:1026C00033498861084680690121890308400090E8
:1026D00000BF00BF4811019002200290012003902A
:1026E000032004900120059001A90920C006FEF7EF
:1026F000F9FD01208002019001A90920C006FEF722
:10270000F1FD1B20FEF740FF032211461B20FEF7C0
:1027100049FF38E01F492068884234D100BF1C4877
:10272000C0690121490408431949C8610846C069C4
:10273000012149040840009000BF00BF00BF1448B9
:10274000406908431249486108464069012149042B
:102750000840009000BF00BF0C20019002200290B2
:1027600000200390032004900120059001A9092076
:10277000C006FEF7B7FD1C20FEF706FF0322114638
:102780001C20FEF70FFF06B010BD0000003801400E
:10279000001002400044004070B504460D46164645
:1027A000E06F202832D1002D01D0002E01D1012070
:1027B00070BD01210903A068884208D12069002862
:1027C00005D1E807C00F002801D00120F0E700BFC5
:1027D0007420005D012801D10220E9E70121742065
:1027E000015500BF0020206620684068C9050840E8
:1027F000002805D020680068C900084321680860E7
:1028000032462946204601F0FBFBD1E70220CFE704
:10281000204A016891423BD11F4909880122D20315
:102820001140002934D11C49098852101140002957
:102830000FD01A4909780A2903D00021164A1180BD
:1028400026E0154909880122D2031143124A11805A
:102850001EE0124909780D2907D10F490988012284
:10286000920311430C4A118012E00C4909780A4A7C
:1028700012889204920C0A4B995407490988491C02
:10288000054A118011460988C72901DD0021118000
:1028900070470000003801401C0000201E0000208E
:1028A00048000020704700BFFEE7000000B587B079
:1028B000142102A8FDF7BEFD00BF124840690121A6
:1028C000890408430F494861084640690121890489
:1028D0000840019000BF00BF0122032109020A48FD
:1028E000FEF7FDFD0320000202901120039000205E
:1028F00004900320059002A90348FEF7F3FC07B0FB
:1029000000BD0000001002400004004870B50546FC
:102910000026012251022D48FEF7E1FD0022FF2191
:1029200001312A48FEF7DBFD022001F0E5FD80249D
:1029300020E0012211022548FEF7D1FD042001F01C
:10294000DBFD012149022148FEF7C0FD002801D02E
:10295000012000E00020002802D030462043064637
:102960000022FF2101311948FEF7B9FD022001F0D4
:10297000C3FD6410002CDCDC002D06D100220121F7
:1029800049021248FEF7ABFD04E0012251020F4854
:10299000FEF7A5FD012001F0AFFD012211020B4859
:1029A000FEF79DFD052001F0A7FD0022FF2101316A
:1029B0000648FEF794FD012251020448FEF78FFD00
:1029C000142001F099FD304670BD0000000400485D
:1029D00010B5012251021048FEF781FD012001F0DF
:1029E0008BFD012211020C48FEF779FD012001F058
:1029F00083FD0022012149020748FEF770FD0A20ED
:102A000001F07AFD0022FF2101310348FEF767FD46
:102A10000A2001F071FD10BD0004004810B500222D
:102A2000FF2101310F48FEF75AFD012001F064FD3E
:102A30000022012149020B48FEF751FD012001F05F
:102A40005BFD012211020748FEF749FD0A2001F053
:102A500053FD012251020348FEF741FD0A2001F017
:102A60004BFD10BD0004004870B506460022FF2152
:102A700001312B48FEF733FD802524E02846304005
:102A8000002806D10022012149022548FEF727FD32
:102A900004E0012251022248FEF721FD012001F04D
:102AA0002BFD012211021E48FEF719FD052001F041
:102AB00023FD0022FF2101311948FEF710FD0120FE
:102AC00001F01AFD6D10002DD8DC012251021448CE
:102AD000FEF705FD012211021148FEF700FD01205D
:102AE00001F00AFD012149020D48FEF7EFFC002824
:102AF00001D0012000E00020002801D0012400E0E6
:102B00000024214607A0FDF7D1FB0022FF2101315F
:102B10000348FEF7E4FC142001F0EEFC204670BDF3
:102B20000004004825640D0A0000000000B587B0CD
:102B3000142102A8FDF77EFC00BF1C48406901215A
:102B4000490408431949486108464069012149047C
:102B50000840019000BF00BF01200290144803907C
:102B60000220049002A90920C006FEF7BBFB01F079
:102B700065FB302002900F4803900120049002A9C9
:102B80000920C006FEF7AEFB002211460520FEF725
:102B900009FD0520FEF7F8FC002211460720FEF78C
:102BA00001FD0720FEF7F0FC07B000BD0010024059
:102BB000000011100000211000B587B0142102A8F8
:102BC000FDF738FC00BF1248406901214904084361
:102BD0000F494861084640690121490408400190B5
:102BE00000BF00BF012240210920C006FEF777FC8C
:102BF00040200290012003900020049003200590C3
:102C000002A90920C006FEF76DFB07B000BD000059
:102C10000010024070B5044640210920C006FEF7AE
:102C200055FC002801D1012000E0002005462A467D
:102C300040210920C006FEF752FC204601F050FC5E
:102C400070BD000010B50F480F490860400548608E
:102C500000210D488160C1600121016104214161B1
:102C60000021017641768176C176FF21C231C161B2
:102C70000021016224300170012124388162FEF7B5
:102C80009BF810BD00240140600600207047000042
:102C900070B500240CE0002506E00020E900074A9A
:102CA00089180855681CC5B2802DF6DB601CC4B2BB
:102CB000082CF0DB00F0DAF870BD000060020020A4
:102CC000F7B500257F2801DC3F2900DDFEBD0B465E
:102CD000CE17760FF618F6100727BE1BF2B2CE17E6
:102CE000760FF618F610F6008E1BF4B207231E1BA3
:102CF0000123B340DDB2029B002B09D0C3000A4E72
:102D00009B199B5C2B43C600074FF619B35408E090
:102D1000C300054E9B199B5CAB43C600024FF619DE
:102D2000B35400BFD2E700006002002000B587B0B6
:102D3000142102A8FDF77EFB00BF4A48406901212B
:102D400089040843474948610846406901218904CC
:102D50000840019000BF00BF0122F8214248FEF761
:102D6000BEFBF82002900120039000200490032075
:102D7000059002A93C48FEF7B5FA002220213A4806
:102D8000FEF7ADFB642001F0ABFB012220213648A9
:102D9000FEF7A5FB0021AE2000F072FA0021D5203D
:102DA00000F06EFA0021502000F06AFA0021A820FD
:102DB00000F066FA00213F2000F062FA0021D320E3
:102DC00000F05EFA0021084600F05AFA0021402087
:102DD00000F056FA00218D2000F052FA0021142054
:102DE00000F04EFA0021202000F04AFA00210220D3
:102DF00000F046FA0021A12000F042FA0021C02094
:102E000000F03EFA0021DA2000F03AFA0021122008
:102E100000F036FA0021812000F032FA0021EF2084
:102E200000F02EFA0021D92000F02AFA0021F1202A
:102E300000F026FA0021DB2000F022FA00213020E9
:102E400000F01EFA0021A42000F01AFA0021A620AA
:102E500000F016FA0021AF2000F012FAFFF718FF79
:102E600007B000BD001002400004004870B5002407
:102E70001CE02146B031C8B2002100F001FA002167
:102E8000084600F0FDF90021102000F0F9F90025B6
:102E900008E0E900074A8918085D012100F0F0F90F
:102EA000681CC5B2802DF4DB601CC4B2082CE0DBCA
:102EB00070BD000060020020FFB583B00C461E46C6
:102EC00000940D98019000252BE00C98405D029035
:102ED000002721E0802102980840002805D0012227
:102EE00021460398FFF7ECFE04E0002221460398F8
:102EF000FFF7E6FE02984006000E0290601CC4B286
:102F00000098201AB04205D1009C0398401CC0B222
:102F1000039003E0781CC7B2082FDBDB00BF681CFE
:102F200085B201988542D0DBFFF7A0FF07B0F0BD66
:102F3000FFB585B00F4616461C4602972046E2179D
:102F4000520F1218D210E3175B0F1B18DB10DB00B7
:102F50000094E31A01D0012300E00023D218214697
:102F6000E30F5B185B105A43D2B20192304620380F
:102F7000C6B200254EE00C2C06D10C207043284927
:102F80004018405D049012E0102C05D13001254915
:102F90004018405D04900AE0182C06D124207043AC
:102FA00021494018405D049001E009B0F0BD0020C7
:102FB000039029E0802104980840002805D0394674
:102FC0000E9A0598FFF77CFE0AE00E98002801D1C2
:102FD000012000E00020024639460598FFF770FE08
:102FE00004984006000E0490781CC7B20298381A64
:102FF000A04205D1029F0598401CC0B2059006E092
:103000000398401CC0B2039003980828D2DB00BF8D
:10301000681CC5B201988542ADDB00BFC5E7000062
:10302000DC51000850560008405C0008FFB585B030
:103030001E460E9C00200490002540E0701B401EA0
:10304000C1B20A2001F086FD014602900798FDF703
:10305000F3F90A210390FDF7EFF90F4604980028D1
:1030600017D1701EA84214DD002F10D10120039447
:103070000090E00F00194010684305994018C0B255
:103080002346202202900699FFF752FF15E0012007
:103090000490012003940090E00F00194010684351
:1030A00005994018C0B2029038463030C2B223466B
:1030B00006990298FFF73CFF00BF681CC5B2B542F5
:1030C000BCDB09B0F0BDF8B506460F4615461C46F8
:1030D00021E0E10F091949108022511AB14202DAA8
:1030E00000263819C7B24020001BB84204DA00207D
:1030F00006460746FFF7CCFD012000902A782346BC
:1031000039463046FFF714FF2046E10F09184910F1
:103110008919CEB26D1C28787E2802DC28782028F8
:10312000D7DAF8BDFFB585B006460C461D460294B9
:10313000294669430846C917490F09184905090E68
:103140000091102D05D107984001224940180190A7
:103150000AE0182D06D14821079848431E49401817
:10316000019001E009B0F0BD00272DE00198C05D9D
:1031700004900020039021E080210498084000285A
:1031800005D0E1B2F0B20122FFF79AFD04E0E1B20E
:10319000F0B20022FFF794FD04984006000E049060
:1031A000601C84B20298201AA84203D1029C701CB1
:1031B00086B206E00398401CC0B20390039808282A
:1031C000DADB00BF781CC7B200988742CEDB00BFB5
:1031D000C8E700009C6F00083C7000087CB50546FD
:1031E0000E461446FFF754FD012080022249402379
:1031F00080220091019000210846FFF75DFE7D20AE
:10320000000101F06DF9FFF743FD012040021B4969
:10321000192380220091019000210846FFF74CFEFF
:10322000234600221C210820FFF77CFF23460222B0
:103230001C211820FFF776FF012023463A221C218B
:1032400000902820FFF774FE234601223021082039
:10325000FFF768FF2346022230211820FFF762FFA4
:10326000012023463A22302100902820FFF760FEFB
:10327000FFF7FCFD7CBD00009C6B00089C6900080A
:1032800070B504460D46002280211748FEF727F945
:103290002A4640211448FEF722F9002617E00022B2
:1032A00008211148FEF71BF980202040C21110218F
:1032B0000D48FEF714F96006040E0A2001F01CF90F
:1032C000012208210848FEF70AF9701CC6B2082E30
:1032D000E5DB012240210448FEF701F901228021AB
:1032E0000148FEF7FCF870BD00040048704700007C
:1032F00000B587B0142102A8FDF79CF800BF18485C
:10330000406901218904084315494861084640691C
:10331000012189040840019000BF00BF0122032160
:1033200009031048FEF7DBF801200003029001209A
:103330000390002004900320059002A90948FDF79E
:10334000D1FF01204003029001200390002004904F
:103350000320059002A90348FDF7C4FF07B000BD94
:10336000001002400004004870470000FFB585B01F
:10337000064615461F460E9C0A2132480088FDF776
:1033800065F8C0B204900A212E480088FDF75EF867
:10339000C8B203900A212C480088FDF757F8C0B244
:1033A00002900A2128480088FDF750F8C8B2019021
:1033B00031461039C8B202230094049A0699FFF7E7
:1033C00035FE012023462E22009030460699FFF755
:1033D000AFFD31460831C8B201230094039A069923
:1033E000FFF724FE314608310919C8B2234617A257
:1033F0000699FFF768FE29461039C8B202230094E7
:103400003946029AFFF712FE012023462E22394642
:1034100000902846FFF78CFD29460831C8B20123E9
:1034200000943946019AFFF701FE2946083109192F
:10343000C8B2234606A23946FFF745FEFFF716FD40
:1034400009B0F0BD04000020060000202543000064
:103450005248250070B504462046FDF791F906460E
:10346000034901F0C3FD05460249FDF795F870BD1B
:103470000000C84200FF7F47F8B504462046FDF72C
:103480007FF90746054901F0B1FD06460449FDF7FD
:1034900083F80546034901F02DFEF8BD00002F43D7
:1034A00000FF7F4700003442FEB506460F46154632
:1034B00000210291019132200090FFF789FA8820C3
:1034C000FFF7D2FA0446002C07D041A0FCF7EEFE2D
:1034D00000BFFFF7A3FA0120FEBD414885420FD08F
:1034E0003F480B3885420BD009208002854207D027
:1034F0003CA0FCF7DBFE00BFFFF790FA0120EBE7F2
:10350000284600F0D7F80446002C07D039A0FCF775
:10351000CDFE00BFFFF782FA0120DDE7FFF77EFA5C
:10352000022000F0DDFF37A0FCF7C0FE11E0FFF73E
:103530004FFA8920FFF798FA0446002C03D135A0F2
:10354000FCF7B4FE0BE0FFF769FA7D20C00000F045
:10355000D3FF0098411EC9B200910028E7D100BFF7
:10356000002C07D033A0FCF7A1FE00BFFFF756FAEE
:103570000120B1E7002102A800F078F80446002CF1
:1035800007D033A0FCF792FE00BFFFF747FA0120F7
:10359000A2E7012101A800F069F80446002C04D03C
:1035A00000BFFFF73BFA012096E768468288018951
:1035B0002CA0FCF77BFE68460089FFF75DFF3060BA
:1035C00068468088FFF746FF3860002084E70000E7
:1035D000CEDED3A6B4F0D0C5BAC50D0A00000000F7
:1035E00016240000D6B8C1EEB7A2CBCDB4EDCEF311
:1035F0000D0A0000CEDED3A6B4F0D0C5BAC5310D99
:103600000A000000B7A2CBCDD6B8C1EECDEAB3C94F
:103610000D0A0000B4D3BBFAD3A6B4F0A3ACCEC25B
:10362000CAAAB6C8CAFDBEDDB2C9D1F9CDEAB3C9CE
:103630000D0A0000B6C1C8A1B3ACCAB12CC8D4CE23
:10364000B4BDD3CAD5B5BDCAFDBEDD0D0A000000AC
:10365000B6C1C8A1CEC2B6C8CAFDBEDDCAA7B0DC1D
:103660000D0A000025582C25580D0A00F8B504460F
:103670000D460020FFF74AF9694608700020FFF761
:1036800045F90146684641702846FFF73FF9014673
:103690006846817000260078000269464978084330
:1036A00020803046F8BD10B5FFF700F9642000F027
:1036B00017FF10BD70B504462012FFF7D5F9054677
:1036C000E0B2FFF7D1F90543284670BD00B591B0CF
:1036D000302105A8FCF7AEFE002001900290039077
:1036E00004900220059001200890102009900220EB
:1036F0000D9000210E910521C9040F910021109118
:1037000005A8FEF7B5F807200190022002900020DE
:1037100003900490012101A8FDF774FF11B000BDD2
:1037200010B5FDF7E9FE10BD08B50020C0431F49E4
:10373000886200BF01210920C006FDF7C7FE0028EE
:1037400001D0012000E000200028F3D100BF17487D
:10375000C0690121090708431449C8610846C069C6
:1037600009040840009000BF00BF1048006A091318
:1037700008430E490862FDF71FFF0D480068082145
:1037800008430B4908600948006A0121090488437D
:103790000649086206480068042108430449086095
:1037A0008815FDF713FFFDF719FF08BD0010024053
:1037B000007000401948006801210843174908605B
:1037C00008464068164908401449486008460068A1
:1037D000144908401149086008460068012189041D
:1037E00088430E490860084640683F210904884321
:1037F0000A4948600846C06A00090001C8620846D4
:10380000006BFF2114318843044908630846406B6C
:103810004008400048630020886070470010024064
:103820000CB8FF08FFFFF6FE10B50248FEF76DFC6E
:1038300010BD00001802002000B587B000200390E2
:10384000049005900690019002901148114908607B
:103850001148486000210F4881601049C160002173
:1038600001618161FEF73CFB01200003039003A985
:103870000848FEF7C1FB00200190029001A905480D
:10388000FEF7ECFA0348FEF77FFB07B000BD00002F
:103890000004004018020020BF1200000F270000A3
:1038A00010B50268204B984202D0204B984205D1B7
:1038B00070241346A3431A464B681A431A4B984286
:1038C0000ED01A4B98420BD0194B984208D0194B86
:1038D000984205D0184B984202D0184B984206D116
:1038E000032424021346A3431A46CB681A438024B8
:1038F0001346A3434C6923431A4602608B68C36294
:103900000B688362084B984208D00A4B984205D056
:10391000094B984202D0094B984201D10B690363CD
:103920000123436110BD0000002C01400004004051
:103930000020004000400140004401400048014098
:1039400070B50C468168FF2636020D46B543294600
:103950001D02154325432943816070BD10B50A46F9
:10396000816870240B46A343194607231343194368
:10397000816010BD70B50B461446026A056A6D0879
:103980006D0005628169F0260D46B5432946250183
:1039900029430A261546B5432A4615461D432A469D
:1039A0008161026270BD70B50B461446056A10262F
:1039B000B54305628169026A0F2636030D46B54399
:1039C000294625032943A0261546B5432A461D014D
:1039D0002A438161026270BDF3B581B007460022BF
:1039E000012109034548FDF77AFD00220121490321
:1039F0004248FDF774FD042000F072FDFF20F53011
:103A000000F07AFD012211033C48FDF768FD012218
:103A100051033A48FDF763FD042000F061FDFF20EB
:103A2000F53000F069FD002449E0072643E0385DE9
:103A30003041C507ED0F002D1CD1002201210903E3
:103A40002E48FDF74CFD0022012149032B48FDF7CC
:103A500046FD2B4800F050FD012211032748FDF7D9
:103A60003EFD012251032548FDF739FD23200001C9
:103A700000F042FD012D1DD1002229031F48FDF752
:103A80002EFD002269031D48FDF729FD1C4800F0AA
:103A900033FD012211031948FDF721FD01225103D5
:103AA0001648FDF71CFD012000F01AFD1448A03057
:103AB00000F022FD761E002EB9DA601CC4B2029816
:103AC0008442B2DB0022012109030C48FDF707FD07
:103AD0000022012149030948FDF701FD23200001CF
:103AE00000F00AFD012211030448FDF7F8FC012251
:103AF00051030248FDF7F3FCFEBD0000000400483E
:103B00001202000010B504460E480F49086008462E
:103B1000446000218160C16001610C21416100218C
:103B20008161C161FEF770FD002802D007A0FCF79B
:103B3000BDFB054800680068202108430249096868
:103B4000086010BD00380140940100207561727456
:103B500032206572726F720D0A00000000BF0549C5
:103B6000C969802211408029F9D102492031088198
:103B70007047000000380140818CC907C90F002937
:103B800008D001684968012252049143826A1143B6
:103B9000026851600222416A1140022907D101687E
:103BA0004968D2039143C26A1143026851600422FA
:103BB000416A1140042907D1016849681204914300
:103BC000026B1143026851600822416A11400829C2
:103BD00007D10168496812039143426B114302689F
:103BE00051601022416A1140102907D1016889688B
:103BF00012029143826B1143026891602022416A54
:103C00001140202907D10168896812029143C26BD3
:103C10001143026891604022416A1140402915D148
:103C20000168496892039143026C11430268516034
:103C300001221205016C914208D1016849680322F2
:103C400052059143426C1143026851608022416ADF
:103C50001140802907D10168496812039143826CA1
:103C6000114302685160704738B504460021802036
:103C70000151FDF73BFC054620680068082108401B
:103C800008280BD114482B460022890400902046B6
:103C900000F00EFA002801D0032038BD206800682B
:103CA0000421084004280BD10B482B4600220905AB
:103CB0000090204600F0FCF9002801D00320ECE73A
:103CC0002020A067E0670020206600BF002174204C
:103CD000015500BF0020E0E7FFFFFF0170B505467A
:103CE0006C6A00215A200153522001532046FEF7EE
:103CF0000FFB70BD01680968FF2221329143026801
:103D00001160016889684908490002689160016E84
:103D1000012905D1016809681022914302681160E8
:103D20002021C167002101664166704710B5044635
:103D30002068006840218843216808602020A0672F
:103D40000020A0662046FEF7ADFD10BDF8B5044684
:103D50005C20075BE06F222837D12068868C656D78
:103D6000304638402880606D801C60655A20005BBA
:103D7000401E81B25A200153005B00282BD12068DD
:103D80000068FF212131884321680860206880682D
:103D900040084000216888602020E06700206066BD
:103DA000206E01280BD1206800681021884321680B
:103DB00008605820015B2046FEF7A9FA02E0204681
:103DC000FEF726FD0020206605E0206880690821B6
:103DD000084321688861F8BD70B504465C20065B25
:103DE000E06F222837D12068858CF0B22840616DC1
:103DF0000870606D401C60655A20005B401E81B2F7
:103E00005A200153005B00282BD120680068FF2155
:103E1000213188432168086020688068400840009C
:103E2000216888602020E06700206066206E0128FD
:103E30000BD1206800681021884321680860582051
:103E4000015B2046FEF763FA02E02046FEF7E0FC45
:103E50000020206605E02068806908210843216869
:103E6000886170BDFEB50446002000902169A068FD
:103E7000084361690843E1690843029020680068CB
:103E80005949084002990843216808602068406841
:103E9000032109038843E168084321684860A06959
:103EA0000290206A029908430290206880680B21E2
:103EB00009028843029908432168886000BF4B4982
:103EC0002068884217D14A48006B8007800F00287D
:103ED00006D0012808D0022808D0032808D101E024
:103EE000002607E0022605E0042603E0082601E09C
:103EF000102600BF06E03F492068884201D1002615
:103F000000E0102600BF0121C903E069884239D1D1
:103F1000002E06D0022E08D0042E08D0082E0DD177
:103F200009E0FDF72BFC05460CE0334D0AE0FDF7F8
:103F300037FC054606E00125ED0303E000250120DE
:103F4000009000BF00BF002D49D06A0063685B0885
:103F5000D0186168FCF770FA87B2102F0FD327488A
:103F600087420CD825480F38384001903807400F59
:103F700001990843019001982168C8602FE0012051
:103F800000902CE0002E06D0022E08D0042E08D07F
:103F9000082E0DD109E0FDF7F1FB05460CE0164DAA
:103FA0000AE0FDF7FDFB054606E00125ED0303E011
:103FB00000250120009000BF00BF002D0FD06168D8
:103FC0004A085019FCF738FA87B2102F05D30B486E
:103FD000874202D82068C76001E0012000900020DD
:103FE0006066A0660098FEBDF369FFFF00380140DF
:103FF000001002400044004000127A00FFFF000061
:1040000010B5034659655820C2525A20C2520020AA
:10401000586600BF012424039868A0420AD1186999
:10402000002803D11F4C5C20C45214E0FF245C2004
:10403000C45210E0986800280AD11869002803D1FA
:10404000FF245C20C45206E07F245C20C45202E0BE
:1040500000245C20C45200BF00248020C4502220D1
:10406000D86718688068012420431C68A060012478
:1040700024039868A04205D11869002802D10A4893
:10408000586601E00948586600BF00247420C454F3
:1040900000BF18680068FF24213420431C6820609A
:1040A000002010BDFF0100004D3D0008D93D000873
:1040B000FFB581B004460D4617460A9E4CE0701CC1
:1040C000002849D0FDF712FA0499401AB04201D8ED
:1040D000002E17D120680068FF21A1318843216894
:1040E00008602068806840084000216888602020BF
:1040F000A067E06700BF00217420015500BF0320C6
:1041000005B0F0BD2068006804210840002823D0D5
:104110002068C06949020840C00A00281CD008462F
:104120002168086220680068FF21A1318843216866
:10413000086020688068400840002168886020206E
:10414000A067E06720218020015100BF002174207A
:10415000015500BF0320D3E72068C0692840A8426A
:1041600001D1012000E00020B842A8D00020C7E71C
:1041700010B500240848C06920210840002806D056
:10418000054820308088C4B2204600F0B5FD0348C1
:10419000FEF7C6F810BD0000003801409401002071
:1041A00010B500240C48FEF7BBF800BF01E0641C0A
:1041B00000BF0948FEF7ADF82028F8D100BF002461
:1041C00001E0641C00BF012204490348FEF7E4FA41
:1041D0000028F6D100BF10BD100100201E000020F5
:1041E00000B587B0142102A8FCF724F90022802131
:1041F0000920C006FDF773F900BF0F48406901218F
:10420000490408430C4948610846406901214904B2
:104210000840019000BF00BF802002900120039061
:10422000002004900320059002A90920C006FDF794
:1042300059F807B000BD00000010024010B5FCF7AF
:1042400053FC002801D1FFF76FFA10BDF8B582B218
:104250008BB2040C0D0C10465843002126465E43D9
:10426000370C36048019794116466E43370C3604F4
:104270008019794126466E438919F8BD30B47446D9
:10428000641E2578641CAB4204D3635D5B00E318B5
:1042900030BC18471D46F8E710B5002819DB1A4A4C
:1042A00003231B02D21883089B00D2588307DC0E1D
:1042B000FF23A3409A438B071B0E8407E40EA34001
:1042C0001A43114B032424021B198408A4001A5119
:1042D00018E00E4A03071B0F083B9B089B00D258AF
:1042E0008307DC0EFF23A3409A438B071B0E840732
:1042F000E40EA3401A43054B0407240F083CA4080E
:10430000A4001A5110BD000000E100E01CED00E027
:1043100000BF704710B518480188012000F07AFBF3
:1043200016480188022000F075FB154801780A2024
:1043300000F070FB134801780B2000F06BFB124873
:1043400001780E2000F03AFB10480178652000F05B
:1043500061FB0C480178662000F05CFB0C4801789A
:10436000672000F02BFB0021682000F0F3FA002109
:10437000152000F0EFFA10BD040000200600002018
:10438000080000200900002000000020020000209A
:104390000100002001460020087800024A781043FE
:1043A00000028A7810430002CA7810437047000068
:1043B000F0B585B004463149E01C085C02900298D3
:1043C0000300FFF75BFF0F090C0F121D2125564755
:1043D00056565656564A560000F0A2F94AE000F0EA
:1043E000C7FB47E000F094F944E02449A01D085CB5
:1043F0002349087000220321084600F057FD39E0E8
:1044000001202049087035E001201F49087031E083
:104410001A49201D085C07020A46611D515C0F43C2
:10442000002514E0A01D4019801C1449085C0602F8
:10443000A01D4019C01C085C801986B20919891D8D
:10444000481900F023F80390301D281885B2BD42AA
:10445000E8DB0FE0FFF75EFF0CE00849A01D085CF9
:104460000190E01D085C00900099019800F08CFC20
:1044700000E000BF00BF05B0F0BD0000A0060020B6
:10448000430000204100002042000020FEB5044609
:1044900026786778A0780502E078401985B2304622
:1044A00000F01EF90190019840000749401840783B
:1044B000B84201D00020FEBD2A46211D304600F042
:1044C0003FF800900098F6E7A471000810B5044684
:1044D0000420FDF793FC0148046010BD1400002087
:1044E00030B50446002504E07D20C00000F004F84B
:1044F0006D1CA542F8D330BD70B5034600220E4EA8
:1045000075690E4E36685E4334460B4EB1690FE056
:10451000094EB06988420BD0884202D20E1AB218F6
:1045200002E02E1A7618B2180146A24200D300E02B
:10453000EEE700BF70BD000000E000E014000020C6
:10454000F8B505460E461746152D16D004DC0A2D83
:1045500007D00B2D23D10AE0662D14D0682D1ED173
:1045600017E03946304600F03FF8044618E0394677
:10457000304600F04FF8044612E03946304600F06D
:1045800075F804460CE03946304600F059F8044608
:1045900006E03946304600F006F8044600E000BF69
:1045A00000BF2046F8BDF8B506460F4639463046EE
:1045B00000F06CFA0546002D06D10022802109206A
:1045C000C006FCF78CFF05E0012280210920C0060F
:1045D000FCF785FF2946682000F0BCF90446012C51
:1045E00000D1F8BD0020FCE7F8B505460E4631467F
:1045F000284600F04EFA044605490C7021460A2070
:1046000000F008FA0746012F00D1F8BD0020FCE7B2
:1046100008000020F8B505460E463146284600F051
:1046200038FA044605490C7021460B2000F0F2F9D7
:104630000746012F00D1F8BD0020FCE7090000204B
:10464000F8B505460E463146284600F022FA0446E3
:1046500005490C702146662000F0DCF90746012F61
:1046600000D1F8BD0020FCE70A000020F8B506469E
:104670000F463946304600F009FA0546002D03D1B1
:1046800001200849087002E0022006490870294606
:10469000152000F05FF90446012C00D1F8BD002080
:1046A000FCE700000C00002000BF054AD26940234F
:1046B0001A40002AF9D0C2B2014B20331A81704748
:1046C0000044004030B502460020002305E0157884
:1046D000521C2C18E0B25C1CA3B28B42F7DB30BD3D
:1046E00070B5054600F012F80646002407E06000A9
:1046F0000549085CA84200D103E0601CC4B2B44282
:10470000F5DB00BF204670BDA47100080A20704789
:1047100010B5002422460321022000F0C7FB10BD83
:1047200010B500240B480078002808D1002120464D
:1047300000F0A0FAC4B201200649087004E001218B
:10474000204600F097FAC4B222460321002000F070
:10475000ADFB10BD440000200EB5002400200290E7
:104760000190FCF7D5FEFEF7B1FF3020FFF7AEFE5B
:10477000E120400200F0A4FAFEF71EFAFEF7D6F997
:10478000FFF72EFDFEF7B4FDFFF756F8FEF7CEFA61
:104790004B20C001FFF7B6F900F0E0FAFEF752FA3D
:1047A000FEF781FF3220FFF79BFE1022002104203C
:1047B000FEF714FDB6E05C480078012869D10020BE
:1047C000594908700922920201A902A8FEF76CFE5D
:1047D000FCF70AFA554908705549029800F006FCA2
:1047E0000546FBF789FF534908805149019800F0BD
:1047F000FDFB0546FBF780FF4F4908801020302362
:1048000046221C2100901046FEF7B0FD4B48007870
:10481000FBF7B6FF0546029900F0BEFB03D201206C
:10482000474908700FE047480078FBF7A9FF0546A5
:10483000029900F033FC03D200204149087002E0E5
:1048400002203F490870394800783F49097888427A
:1048500003DA00203D49087002E001203B4908705E
:1048600034480188012000F0D5F83348018802203F
:1048700000F0D0F82D480178652000F0CBF83048E2
:1048800001780E2000F09AF830480178672000F097
:1048900095F82F48007800280BD02D480078012883
:1048A00002D1FCF755F901E0FCF762F90020284934
:1048B000087000F06FFA00F0F3F80300FFF7DEFC79
:1048C0000705090E151C232A2E006420FEF7A2F905
:1048D00025E0FF20F530FEF79DF920E00122402180
:1048E0000920C006FCF7FBFD19E000224021092049
:1048F000C006FCF7F4FD12E0002240210920C006AA
:10490000FCF7EDFD0BE0012240210920C006FCF779
:10491000E6FD04E06420FEF77DF900E000BF00BF83
:10492000601CC4B247E700000B000020020000201A
:1049300000002041040000200600002008000020A4
:1049400000000020090000200A00002001000020D3
:104950000C00002070B504460D460026164800786D
:10496000012800D170BD2146304600F083F906468B
:104970000121304600F07EF906460021304600F065
:1049800079F906460121304600F074F90646002DFB
:1049900005D10021304600F06DF9064604E0012102
:1049A000304600F067F9064632460321072000F042
:1049B0007DFA0120D6E700004000002070B50446D3
:1049C0000E46002512480078012800D170BD21460E
:1049D000284600F04FF905460421284600F04AF920
:1049E00005460021284600F045F9054601212846E4
:1049F00000F040F905463146284600F03BF90546EF
:104A00002A460321072000F051FA0120DEE70000CA
:104A10004000002070B505460C4600261A48007874
:104A2000012800D170BD2946304600F023F9064622
:104A30000221304600F01EF906460021304600F003
:104A400019F906460421304600F014F90646210EF5
:104A5000304600F00FF906462002010E304600F005
:104A600009F906462004010E304600F003F9064617
:104A7000E1B2304600F0FEF8064632460321072038
:104A800000F014FA0120CDE7400000200246107823
:104A9000704710B503460C461846FFF77BFC10BD67
:104AA00001480078704700004300002010B5002046
:104AB0000349087000220321042000F0F7F910BD1B
:104AC0004100002070B5044600250020064908700A
:104AD0002146284600F0CEF8C5B22A46032105201B
:104AE00000F0E4F970BD000042000020F0B505467A
:104AF0000E4613462A463446002D01D0002E01D121
:104B00000020F0BDA24202D9E018904208D2002154
:104B100003E0605C5054481C81B29942F9DB09E023
:104B2000194605E0481E205C4F1ED055481E81B234
:104B30000029F7DC2846E4E701460022002900D1DD
:104B40007047002200E0521C0B78491C002BFAD160
:104B50001046F5E710B50246012002E00346534334
:104B600018460B464C1EE1B2002BF7D110BD0000D9
:104B70003EB50024002000900190029025A0FFF790
:104B8000DBFF85B22A4623A1204600F061F8C4B2BB
:104B900022A0FFF7D1FF85B22A4620A1204600F0CF
:104BA00057F8C4B222A0FFF7C7FF85B22A4620A15A
:104BB000204600F04DF8C4B21FA0FFF7BDFF85B23C
:104BC0002A461DA1204600F043F8C4B21CA0FFF7FE
:104BD000B3FF85B22A461AA1204600F039F8C4B2C4
:104BE00019A0FFF7A9FF85B22A4617A1204600F0B9
:104BF0002FF8C4B215A0FFF79FFF85B22A4613A174
:104C0000204600F025F8C4B222460321012000F01E
:104C10004DF93EBD7B2270223A22000070346F694C
:104C200076767371316C32623261786A000000000E
:104C3000222C2276223A2200312E302E3000000023
:104C4000222C226D223A0000320000007D0000007C
:104C5000F8B504460E461546054807192A4631465A
:104C60003846FFF743FF601984B22046F8BD0000C4
:104C7000DC060020024B1A181170431C98B27047D2
:104C8000DC0600200B4909680B4A126891420FD0DC
:104C900008490A6809498A4202D31739054A11604E
:104CA00004490968087803490968491C014A1160E8
:104CB000704700003C00002038000020D60600208D
:104CC00010B5044609480A490860084644600021B6
:104CD0008160C160016181610C214161FDF794FC3B
:104CE000012204490248FDF757FD10BD0044004071
:104CF000100100201E00002012490968124A1268A3
:104D0000891A01291CD0104909680E4A126891427B
:104D100006D90D4909680B4A1268891A17290FD25A
:104D200009490A6809498A4202D31739064A1160BB
:104D300005490968087004490968491C024A11605C
:104D4000704700003C00002038000020D6060020FC
:104D500010B504462046FEF701FF10BD0548064980
:104D6000086006490860002005490870FF200549D1
:104D700008707047BF060020380000203C0000206B
:104D80004000002043000020002802D1002900D06C
:104D900000BF704770B50024002509E0FFF772FFDF
:104DA00036490A880988491C344B1980344988548B
:104DB000324800881F2803D200F09AF80028EDDC62
:104DC0002E480088072800DA70BD3FE02C48005DBF
:104DD000552802D0601C84B238E02949601C085C68
:104DE000AA2802D0601C84B230E02549A01C085CCF
:104DF000002802D0A01C84B228E02149201D085CB4
:104E00000502601D085CC01D401985B2262D02D91F
:104E1000E01C84B21AE019480088001BA84200DA9E
:104E200019E06A1E91B2164A1019FFF74BFC61197E
:104E3000491E134A515C884202D0E01C84B205E04E
:104E40002046FFF7B5FA601984B200BF0B4800880E
:104E5000001B0728BADA00BF08480088001B074972
:104E6000088008460088002806DD05480119034827
:104E700002880348FFF73AFE00BFA5E7360000208E
:104E8000A006002070B504460D46002C01D0002D70
:104E900000D170BD03E02078FFF75AFF641C28465C
:104EA000691E8DB20028F6D100BFF2E7F8B50546BD
:104EB0000E461446002755200C490870AA20487059
:104EC00008468670C570201208714C71E01D84B2CE
:104ED000601E81B20548FFF7F5FB0746601E0349D7
:104EE0000F5421460148FFF7CDFFF8BDD60600203C
:104EF0000448006804490968884201D001207047CD
:104F00000020FCE7380000203C00002070B501259F
:104F10000400ED074C4020D4441A01D2001B0919AB
:104F2000C60D4B00F2B2FF2A29D01B0E2CD0000276
:104F30000C02D31A2C43DC402843051910D2280A4E
:104F400002D3401C6D0611D0761EF6058019FF2A8B
:104F500000DA70BDC00DC00570BD694000F0D0F82A
:104F600001200543C541521C761CE8E764089C40BB
:104F7000C90161408900E7D10124A043E4E71B0E89
:104F8000440200D0034870BD002AFCD1C00FC00706
:104F900070BD00BF0000C07F01230200DB050A4393
:104FA0000DD4DA4203D49A4207D488427047D842DB
:104FB00014D4D94212D48842704780427047DA42F2
:104FC00003D59A42F9D5814270475B004200DA422C
:104FD00004D24A00DA4201D28142704710B5024A37
:104FE000FBF752FC10BD00BF0900160470B542006B
:104FF00064414B005C41120E39D01B0E38D0FF2AA1
:105000003CD0FF2B3AD040024902400A490A060030
:1050100045184E43000A090AD2184843ED017F3A69
:105020000104731A4019190C4318990F04D0012177
:105030005B0849075B1A521CD80904D3401CF503CE
:1050400001D19D0607D0FF2A08D2D50506D0E40776
:105050002043401970BD0125A843F4E7002A01DC74
:10506000E00770BD2402FF202043C00570BD1B0E69
:10507000FF2A03D0FF2B01D0E00770BDFF264500BB
:105080003606B54206D84D00B54203D8D218FF2ADD
:1050900000D0E7E7004870BD0000C07F01230A0090
:1050A000DB0502430DD4DA4203D49A4207D481428D
:1050B0007047D94214D4D84212D4814270478942F1
:1050C0007047DA4203D59A42F9D5884270475B00AF
:1050D0004A00DA4204D24200DA4201D288427047E2
:1050E0004840414010B5024A4840FBF7CDFB10BD97
:1050F0000900160470B501250400ED074C4022D4C8
:10510000441A02D26C40001B0919C60D4B00F2B2C2
:10511000FF2A4BD01B0E50D000020C02D31A2C4396
:10512000DC40A843051B05D5AD0019D36D08761EDC
:10513000521E37D0F605280A01D2801970BD704181
:105140006D0603D070BD6940FFF7E6FE9C40090282
:105150006140490001D0401E70BD0124A04370BDD4
:105160006D081DD001202B0C01D12D0410302B0E09
:1051700001D12D0208302B0F01D12D01001DAB0FE5
:1051800001D1AD00801CEB0F01D16D00401C6D0002
:10519000361A121A680AF5054019012A02DB70BD99
:1051A000002070BDC036300AC00770BD1B0E44021F
:1051B00001D1FF2B00D1024870BD002AF0D070BD94
:1051C0000000C07F00000000000000000102030496
:1051D00006070809000000000102030400000000A7
:1051E0000000000000000000000000003F40000040
:1051F00000000000000030004000300040000000CF
:1052000009000BC03D000BC03D00090018C0244040
:105210007FE0224031800000180024C01B000D8078
:105220003240018003801C4027401C800740004022
:1052300010006000000000000000000000000000FE
:1052400000001F80204040200000402020401F80A0
:1052500000000000090006001F8006000900000091
:10526000040004003F8004000400000000100060FF
:10527000000000000000000004000400040004001E
:1052800004000000000000400000000000000000DA
:10529000002001C006003800400000001F802040B0
:1052A000204020401F800000000010403FC0004010
:1052B0000000000018C02140224024401840000097
:1052C00010802040244024401B80000002000D007C
:1052D00011003FC0014000003C8024402440244095
:1052E000238000001F8024402440344003800000BD
:1052F0003000200027C03800200000001B80244020
:10530000244024401B8000001C0022C02240224078
:105310001F800000000000000840000000000000A6
:105320000000000004600000000000000000040015
:105330000A0011002080404009000900090009000E
:105340000900000000004040208011000A00040015
:105350001800200023402400180000001F80204077
:10536000274029401F400000004007C039000F00BF
:1053700001C0004020403FC0244024401B8000006A
:105380001F802040204020403080000020403FC04F
:10539000204020401F80000020403FC024402E407D
:1053A00030C0000020403FC024402E0030000000EC
:1053B0000F001080204022403380020020403FC078
:1053C000040004003FC02040204020403FC0204057
:1053D000204000000060202020203FC0200020004E
:1053E00020403FC024400B0030C0204020403FC040
:1053F00020400040004000C03FC03C0003C03C00D3
:105400003FC0000020403FC00C4023003FC02000B0
:105410001F802040204020401F80000020403FC0CF
:1054200024402400180000001F802140214020E07B
:105430001FA0000020403FC02440260019C00040AB
:1054400018C0244024402240318000003000204019
:105450003FC020403000000020003F80004000405E
:105460003F80200020003E0001C0070038002000DF
:10547000380007C03C0007C038000000204039C099
:10548000060039C0204000002000384007C03840E6
:1054900020000000304021C02640384020C00000DD
:1054A000000000007FE0402040200000000070006D
:1054B0000C000380004000000000402040207FE0FE
:1054C000000000000000200040002000000000005C
:1054D000001000100010001000100010000000006C
:1054E0004000000000000000000002800540054070
:1054F00003C0004020003FC004400440038000007F
:1055000000000380044004400640000000000380C7
:10551000044024403FC00040000003800540054097
:1055200003400000000004401FC02440244020002D
:10553000000002E0055005500650042020403FC006
:105540000440040003C000400000044027C00040A5
:105550000000000000100010041027E00000000010
:1055600020403FC00140070004C0044020402040CC
:105570003FC000400040000007C0040007C0040016
:1055800003C00000044007C00440040003C0004002
:10559000000003800440044003800000041007F072
:1055A00004500440038000000000038004400450C5
:1055B00007F00010044007C002400400040000008F
:1055C000000006400540054004C000000000040043
:1055D0001F80044000400000040007800040044099
:1055E00007C000400400070004C00180060004005A
:1055F000060001C0070001C006000000044006C00C
:10560000010006C0044000000410071004E00180FF
:10561000060004000000044005C0064004400000ED
:105620000000000004007BE04020000000000000BB
:105630000000FFF000000000000040207BE00400BC
:1056400000000000400080004000200020004000DA
:10565000000000000000000000000000000000004A
:105660000000000000001FCC000C00000000000043
:1056700000000800300060000800300060000000FA
:10568000022003FC1E20022003FC1E20022000003A
:1056900000000E1811043FFF10840C780000000079
:1056A0000F0010840F3800C00778188400780000BD
:1056B00000780F8410C411240E9800E400840008C0
:1056C00008006800700000000000000000000000FA
:1056D00000000000000007E018182004400200004D
:1056E000000040022004181807E00000000000003D
:1056F0000240024001800FF00180024002400000A1
:105700000080008000800FF8008000800080000092
:105710000001000D000E000000000000000000006D
:1057200000000080008000800080008000800080F9
:105730000000000C000C0000000000000000000051
:10574000000000060018006001800600180020001C
:10575000000007F0080810041004080807F0000013
:105760000000080408041FFC0004000400000000FE
:1057700000000E0C10141024104411840E0C0000B4
:1057800000000C1810041104110412880C700000A1
:10579000000000E00320042408241FFC0024000073
:1057A00000001F981084110411041088107000006C
:1057B000000007F008881104110418880070000028
:1057C00000001C00100010FC13001C001000000062
:1057D00000000E3811441084108411440E3800006B
:1057E00000000700088C10441044088807F00000EF
:1057F000000000000000030C030C0000000000008B
:105800000000000000010106000000000000000090
:10581000000000800140022004100808100400006D
:10582000022002200220022002200220022000008A
:10583000000010040808041002200140008000004D
:1058400000000E001200100C106C10800F00000001
:1058500003E00C1813E4142417C4082807D0000030
:105860000004003C03C41C40074000E4001C00048A
:1058700010041FFC1104110411040E8800700000B4
:1058800003E00C1810041004100410081C10000091
:1058900010041FFC100410041004080807F0000096
:1058A00010041FFC1104110417C410040818000090
:1058B00010041FFC1104110017C0100008000000A4
:1058C00003E00C181004100410441C780040000081
:1058D00010041FFC10840080008010841FFC100442
:1058E0000000100410041FFC10041004000000004D
:1058F00000030001100110011FFE10001000000045
:1059000010041FFC110403801464181C1004000010
:1059100010041FFC1004000400040004000C00002C
:1059200010041FFC1F0000FC1F001FFC10040000DF
:1059300010041FFC0C04030000E010181FFC1000F2
:1059400007F00808100410041004080807F000000D
:1059500010041FFC10841080108010800F000000C5
:1059600007F0081810241024101C080A07F2000081
:1059700010041FFC1104110011C011300E0C0004A2
:1059800000000E1C11041084108410441C38000008
:105990001800100010041FFC100410001800000074
:1059A00010001FF810040004000410041FF8100079
:1059B00010001E0011E0001C007013801C0010007D
:1059C0001FC0103C00E01F0000E0103C1FC00000A2
:1059D0001004180C163401C001C01634180C100441
:1059E00010001C00130400FC13041C001000000035
:1059F0000804101C1064108413041C041018000008
:105A00000000000000007FFE400240024002000053
:105A1000000030000C0003800060001C0003000048
:105A200000004002400240027FFE00000000000033
:105A30000000000020004000400040002000000066
:105A4000000100010001000100010001000100014E
:105A500000004000400020000000000000000000A6
:105A600000000098012401440144014400FC0004AA
:105A700010001FFC00880104010400880070000071
:105A80000000007000880104010401040088000087
:105A90000000007000880104010411081FFC0004CC
:105AA000000000F8014401440144014400C8000022
:105AB0000000010401040FFC11041104110018007E
:105AC000000000D601290129012901C901060000B1
:105AD00010041FFC008401000100010400FC00040C
